:100000000C9406040C94E61A0C94BB1A0C94901AE7
:100010000C94651A0C943A1A0C940F1A0C94E41967
:100020000C94B9190C9437040C9437040C943704CD
:100030000C94351C0C9437040C9437040C9437043E
:100040000C9437040C9437040C9437040C94370444
:100050000C9437040C9437040C9437040C946F19E7
:100060000C9437040C9439190C940F190C94370420
:100070000C9437040C9437040C9437040C94370414
:100080000C9437040C9437040C9437040C94370404
:100090000C9437040C9437040C9437040C94111B03
:1000A0000C9437040C9437040C9437040C943704E4
:1000B0000C9437040C9437040C9437040C943704D4
:1000C0000C9437040C9437040C9437040C94D9180E
:1000D0000C94AF180C9437040C9437040C94370428
:1000E0000C9437040C9407060C94FD050C948117AE
:1000F0000C9447080C9413080C9491180C94BC169B
:100100000C941A080C94D7050C94B7080C94DE17BD
:100110000C9499060C9472160C94A3170C941B065D
:100120000C9403060C94AA160C94C6040C94FD17A8
:100130000C94FA050C943B170C941B160C94F007C6
:100140000C9497060C941F060C9498060C94A40427
:100150000C9415060C9468040C940D060C942D0652
:100160000C94E8160C94541C0C9457170C94DC0552
:100170000C9495040C94EE050C94B8040C94F107BF
:100180000C94F2050C9411060C945A050C944A1622
:100190000C94F6050C9423060C9429060C94000884
:1001A0000C94080500407A10F35A00A0724E18090A
:1001B0000010A5D4E80000E87648170000E40B54CE
:1001C000020000CA9A3B000000E1F505000080969D
:1001D0009800000040420F000000A08601000000CF
:1001E000102700000000E803000000006400000089
:1001F00000000A00000000000100000000002C7652
:10020000D888DC674F0823DFC1DFAE59E1B1B7966C
:10021000E5E3E453C63AE651997696E8E6C28426C9
:10022000EB898C9B62ED407C6FFCEFBC9C9F40F2A5
:10023000BAA56FA5F490055A2AF75C936B6CF96721
:100240006DC11BFCE0E40D47FEF520E6B500D0EDE6
:10025000902E0300943577050080841E080000204E
:100260004E0A000000C80C333333330F986E1283EC
:100270001141EF8D2114893BE65516CFFEE6DB18C0
:10028000D1844B381BF77C1D901DA4BBE424203285
:1002900084725E228100C9F124ECA1E53D2754530C
:1002A0004D3A494E49540A005453463A5349443A48
:1002B0004F4B2C49443D25750A00215453463A536F
:1002C00049443A4641494C2C49443D25750A00545D
:1002D000534D3A494E49543A5354415449443D25AB
:1002E000750A0054534D3A494E49543A54535020DC
:1002F0004F4B0A0054534D3A465041520A00215484
:10030000534D3A465041523A4E4F205245504C5967
:100310000A002154534D3A465041523A4641494C05
:100320000A0054534D3A465041523A4F4B0A00543A
:10033000534D3A49443A5245510A0054534D3A49B3
:10034000440A002154534D3A49443A4641494C0A23
:100350000054534D3A49443A4F4B0A0054534D3AD6
:1003600055504C0A002154534D3A55504C3A464191
:10037000494C0A0054534D3A55504C3A4447574360
:100380002C4F3D25752C4E3D25750A0054534D3A92
:1003900055504C3A4F4B0A0054534D3A5245414444
:1003A000593A49443D25752C5041523D25752C4400
:1003B00049533D25750A002154534D3A5245414455
:1003C000593A55504C204641494C2C534E500A0046
:1003D0005453463A5444493A54534C0A0054534DEA
:1003E0003A4641494C3A4449530A0054534D3A461F
:1003F00041494C3A434E543D25750A0054534D3AF9
:100400004641494C3A52452D494E49540A0021541F
:1004100053463A5254453A4E324E204641494C0AD0
:10042000005453463A5254453A4E324E204F4B0AEE
:1004300000215453463A5254453A465041522041C5
:1004400043544956450A00215453463A534E443AC0
:10045000544E520A0025735453463A4D53473A536B
:10046000454E442C25752D25752D25752D25752C6E
:10047000733D25752C633D25752C743D25752C70B9
:10048000743D25752C6C3D25752C73673D25752CA9
:1004900066743D25752C73743D25733A25730A00E7
:1004A0004D434F3A5245473A5245510A00214D4378
:1004B0004F3A50524F3A52433D25750A00322E337F
:1004C0002E320A00207C5F5C2F602C0A070220027B
:1004D00020B28710034001200024022210022202D1
:1004E00002200222002220020220222710134101B2
:1004F0000101032220304020305203402214020325
:10050000105224022171010010101210122210103A
:1005100002240101032203002001010032203712CE
:1005200010012132260128403222121012122243D9
:100530002224121001222470C122240F0F5453468A
:100540003A5755523A4D533D256C750A004D434F6D
:100550003A42474E3A494E4954204F4B2C5453503F
:100560003D25750A004D434F3A42474E3A53545089
:100570000A004D434F3A42474E3A4246520A004D16
:10058000434F3A42474E3A494E4954204E4F444514
:100590002C43503D52534E4E412D2D2D2C46513D56
:1005A00025752C52454C3D25752C5645523D322E15
:1005B000332E320A004D434F3A50494D3A4E4F4484
:1005C00045205245473D25750A00215453463A4D72
:1005D00053473A52454C204D53472C4E5245500AF2
:1005E000005453463A4D53473A5243562043420A29
:1005F000005453463A4D53473A42430A0054534637
:100600003A4D53473A4543484F0A00215453463A1E
:100610004D53473A504F4E4720524543562C494E72
:100620004143544956450A005453463A4D53473ABC
:10063000504F4E4720524543562C48503D25750A91
:10064000005453463A4D53473A50494E4745442C7F
:1006500049443D25752C48503D25750A00215453C9
:10066000463A4D53473A4650415220494E41435431
:100670004956450A005453463A4D53473A4650416D
:1006800052204F4B2C49443D25752C443D25750A7D
:10069000005453463A4D53473A4543484F2052453C
:1006A000510A005453463A4D53473A524541442C5F
:1006B00025752D25752D25752C733D25752C633DD0
:1006C00025752C743D25752C70743D25752C6C3D5D
:1006D00025752C73673D25753A25730A0000000ABD
:1006E0000B02090C0D0E08070304010000000000B6
:1006F00000000000000000000000000000000000FA
:1007000000000000000000000012111000000000B6
:1007100000000000000000000000000000000000D9
:10072000000000214D434F3A5741493A52433D257D
:10073000750A00214D434F3A534E443A4E4F4445BB
:10074000204E4F54205245470A0000002200250049
:1007500028002B002E0031003400020100000501AA
:1007600008010B0100002100240027002A002D00B1
:100770003000330001010000040107010A010505F2
:100780000505070508080808020202020A0A080807
:100790000404040401010101010101010303030335
:1007A00003030303040707070C0C0C0C0C0C0C0CC4
:1007B0000202020206060606060606060B0B0B0BD5
:1007C0000B0B0B0B010210202008081020401020FA
:1007D0004080020102010804020101020408102005
:1007E0004080804020100804020180040201804003
:1007F000201008040201080402010102040810206C
:1008000040800102040810204080541C11241FBEA7
:10081000CFEFD1E2DEBFCDBF00E00CBF13E0A0E020
:10082000B2E0E6EEFCE400E00BBF02C007900D92E0
:10083000A833B107D9F72FE0A8E3B3E001C01D92B8
:10084000A736B207E1F714E0C6E0D4E000E006C046
:1008500021970109802FFE010E943D26C530D10756
:1008600080E00807A9F70E94A81D0C9471260C943B
:10087000000090E0FC01EC53F84F24918258984F0F
:10088000FC018491882399F090E0880F991FFC0166
:10089000EC59F84FA591B491FC01E65BF84F8591B6
:1008A00094918FB7F894EC91E22BEC938FBF08955D
:1008B000942FE5E2FFE03091B005318382836683B7
:1008C00025834481487F492B477E4483CF01089587
:1008D000AF92BF92CF92DF92EF92FF920F931F934E
:1008E000CF93DF936C017B018B01040F151FEB018C
:1008F0005E01AE18BF08C017D10759F06991D60143
:10090000ED91FC910190F081E02DC6011995892BA4
:1009100079F7C501DF91CF911F910F91FF90EF9073
:10092000DF90CF90BF90AF900895FC01538D448D20
:10093000252F30E0842F90E0821B930B541710F08A
:10094000CF96089501970895FC01918D828D981797
:1009500061F0A28DAE0FBF2FB11D5D968C91928D6F
:100960009F5F9F73928F90E008958FEF9FEF0895A0
:10097000FC01918D828D981731F0828DE80FF11D69
:10098000858D90E008958FEF9FEF0895FC01918D84
:10099000228D892F90E0805C9F4F821B91098F737D
:1009A0009927089584EB95E00E94C60421E0892BE5
:1009B00009F420E0822F089581E596E00E94C604A4
:1009C00021E0892B09F420E0822F0895FC01A48DF9
:1009D000A80FB92FB11DA35ABF4F2C91848D90E061
:1009E00001968F739927848FA689B7892C93A08944
:1009F000B1898C91837080648C93938D848D9813CE
:100A000006C00288F389E02D80818F7D8083089560
:100A1000EF92FF920F931F93CF93DF93EC0181E04E
:100A2000888F9B8D8C8D98131AC0E889F9898081F5
:100A300085FF15C09FB7F894EE89FF896083E88928
:100A4000F98980818370806480839FBF81E090E01A
:100A5000DF91CF911F910F91FF90EF900895F62EA7
:100A60000B8D10E00F5F1F4F0F731127E02E8C8D41
:100A70008E110CC00FB607FCFACFE889F989808186
:100A800085FFF5CFCE010E94E604F1CFEB8DEC0F90
:100A9000FD2FF11DE35AFF4FF0829FB7F8940B8FA3
:100AA000EA89FB8980818062CFCF682F84EB95E053
:100AB0000C940805CF93DF93EC01888D8823B9F05F
:100AC000AA89BB89E889F9898C9185FD03C0808159
:100AD00086FD0DC00FB607FCF7CF8C9185FFF2CFD6
:100AE000808185FFEDCFCE010E94E604E9CFDF9142
:100AF000CF91089580E090E0892B29F00E94DC04DA
:100B000081110E94000080E090E0892B49F080E094
:100B100090E0892B29F00E94000081110E940000C2
:100B200080E090E0892B29F00E94D20481110E947C
:100B3000000080E090E0892B49F080E090E0892B74
:100B400029F00E94000081110C9400000895282FC4
:100B500030E0F901E352F94F9491F901EC53F84F69
:100B600044912258384FF9012491222309F435C0C9
:100B7000992311F191509231F8F4E92FF0E0882790
:100B8000EB53FA4F8F4F0C943D26F605FA05D70527
:100B9000EE05F205DC05FD05030607060D06110648
:100BA00015061B061F06DC05230629062D06809167
:100BB00080008F7780938000E22FF0E0EE0FFF1F20
:100BC000E65BF84FA591B4918FB7F894EC91611161
:100BD00048C040954E234C938FBF0895809180006C
:100BE0008F7DE8CF80918000877FE4CF84B58F77B9
:100BF00084BDE2CF84B58F7DFBCF8091B0008F772D
:100C00008093B000D9CF8091B0008F7DF9CF8091D3
:100C100090008F7780939000CFCF809190008F7D50
:100C2000F9CF80919000877FF5CF8091A0008F77DA
:100C30008093A000C1CF8091A0008F7DF9CF8091DB
:100C4000A000877FF5CF809120018F7780932001CE
:100C5000B3CF809120018F7DF9CF80912001877FD4
:100C6000F5CF4E2BB8CF3FB7F894809126059091E1
:100C70002705A0912805B091290526B5A89B05C098
:100C80002F3F19F00196A11DB11D3FBFBA2FA92F0B
:100C9000982F8827BC01CD01620F711D811D911D08
:100CA00042E0660F771F881F991F4A95D1F7089574
:100CB0008F929F92AF92BF92CF92DF92EF92FF926C
:100CC0006B017C010E9433064B015C01C114D1040D
:100CD000E104F104B9F00E943306681979098A0920
:100CE0009B09683E73408105910580F321E0C21A9B
:100CF000D108E108F10888EE880E83E0981EA11C57
:100D0000B11CE4CFFF90EF90DF90CF90BF90AF90F9
:100D10009F908F9008952FB7F8946091220570915D
:100D2000230580912405909125052FBF08950895EE
:100D3000089508952091D804260F3327331F2132B8
:100D40003105ECF420915105FC0190E080E0243065
:100D500069F082E00895A091D8042191AC01485433
:100D60005B4FA40FB52FB11D2C930196861798F3F6
:100D70008091D804680F6093D80480E0089581E0E2
:100D800008951092510581E08093500510922B0533
:100D900061E084E10E94A70561E085E10E94A7056A
:100DA000E9EBF0E080818E7F808380818D7F80837E
:100DB00088E48093B80085E48093BC000895CF93C5
:100DC000DF9391E09093B7048823B9F0C091B80005
:100DD000D091BA008091BC008A7B8093BC0060E017
:100DE00084E10E94A70560E085E10E94A7050E94BA
:100DF000C106D093BA00C093B800DF91CF91089597
:100E00008F929F92AF92BF92CF92DF92EF92FF921A
:100E10000F931F93CF93DF93D0917A05D13208F0CF
:100E2000D7C0182FC09179050E9433066B017C0151
:100E30008091510581116BC082E080935105109320
:100E400050058FEF80934F0510924E05D0934D05BE
:100E5000A9E5B5E0EDE2F5E080E0D81391C010928D
:100E60002C0580912C05CC0FC82BC0932C058091AC
:100E70002B05813009F088C010922B050E943306A3
:100E80006B017C0180912C058093BB008091530500
:100E900090915405A0915505B0915605892B8A2B48
:100EA0008B2BA1F00E94330600915305109154053D
:100EB00020915505309156056C197D098E099F09C1
:100EC000061717072807390708F442C08091BC00AD
:100ED00083FDD8CF85EC8093BC000E9433066B0164
:100EE0007C0180915105823009F450C080914F05FA
:100EF0008F3F09F46FC080914F05803209F46CC0B8
:100F000080914F05803309F469C084E026C0809148
:100F1000530590915405A0915505B0915605892B24
:100F20008A2B8B2B09F484CF0E94330680905305C3
:100F300090905405A0905505B09056056C197D0908
:100F40008E099F0986169706A806B90608F070CF85
:100F5000809152050E94DF0685E01092580510929C
:100F60007A0510925705DF91CF911F910F91FF9055
:100F7000EF90DF90CF90BF90AF909F908F900895AB
:100F80009D9191938F5F69CF85EEA5CF8091530599
:100F900090915405A0915505B0915605892B8A2B47
:100FA0008B2B09F49ECF0E943306009153051091BC
:100FB000540520915505309156056C197D098E090F
:100FC0009F09061717072807390708F08ACFC0CFEF
:100FD00081E0C3CF80E0C1CF82E0BFCF83E0BDCF4F
:100FE0000895E091200580911F05E81730F4F0E0A6
:100FF000E550FB4F808190E008958FEF9FEF0895BB
:101000009091200580911F052FEF3FEF981748F42E
:10101000E92FF0E0E550FB4F208130E09F5F909397
:101020002005C901089580911F0590912005891B15
:10103000990B0895CF92DF92EF92FF920F931F9337
:10104000CF93DF937C01CB018A01209157052223A6
:1010500089F0EB016B01C40ED51ECC15DD0569F0DE
:101060006991D701ED91FC910190F081E02DC701CC
:101070001995F3CF642F0E949A06C801DF91CF9192
:101080001F910F91FF90EF90DF90CF900895CF9335
:10109000DF931F92CDB7DEB76983209157052223D6
:1010A000F9F020917A05203258F021E030E0FC017F
:1010B0003383228390E080E00F90DF91CF910895F9
:1010C00080915805E82FF0E0E75AFA4F9981908314
:1010D0008F5F8093580580937A0581E090E0ECCF94
:1010E00061E0CE0101960E949A06F7CFCF93C42FFC
:1010F000FC018081806291E090935705809379058F
:101100001092580510927A058EEE96E00E944708DC
:101110006C2F8EEE96E00E94470881E0CF910C94F0
:101120000007CF93DF93EC016883109220051092A3
:101130001F051092580510927A050E94C10688E991
:1011400096E090931E0580931D0589E996E09093A3
:101150001C0580931B054FEF60E0CE010E947608CE
:101160004FEF61E0CE01DF91CF910C94760890E0D3
:1011700080E00895FC018381877088608383848187
:101180008F71806284836783CF010895FC0183811E
:101190008695869586958A3108F089E10895E091D3
:1011A000A904F091AA04309721F00280F381E02D88
:1011B000199408950F931F930E948B060091AB041E
:1011C0001091AC042091AD043091AE04601B710B02
:1011D000820B930B1F910F9108959C018091A9049C
:1011E0009091AA0482179307F1F09091B3049F7134
:1011F0009093B3043093AA042093A904E091A90426
:10120000F091AA04309721F00190F081E02D19951A
:101210000E948B066093AB047093AC048093AD0482
:101220009093AE0408958091B304805E8093B304DC
:10123000E5CF109244031092390310923A031092B2
:101240003B031092380310923D0308950F931F93B0
:10125000CF93DF93EC018C81829586958770A9F4FA
:10126000CE010E94C608482F50E0BE01695F7F4F43
:101270008DE795E00E946226CE010E94C608E82F05
:10128000F0E0E358FA4F108209C0813071F48F8189
:101290004AE06DE775E090E00E94D91F8DE795E088
:1012A000DF91CF911F910F910895823031F44AE080
:1012B0006DE775E08F819885EFCF833041F44AE088
:1012C0006DE775E08F8198850E943220E7CF8430EA
:1012D00051F46F81788589859A852AE04DE755E03C
:1012E0000E94E41FDBCF853051F46F8178858985BA
:1012F0009A852AE04DE755E00E941020CFCF10E0FC
:10130000873071F42B85293008F028E06F817885CB
:1013100089859A850DE715E042E00E941C1FBECF2B
:10132000CE010E94C608181738F5E12FF0E09F01A2
:10133000220F331FD901A358BA4FEC0FFD1F87812D
:10134000082E000C990B44E0959587954A95E1F796
:101350008F708A3068F4805D8C9322583A4F878171
:101360008F708A3038F4805DF90180831F5FD8CF99
:10137000895CF2CF895CF8CFE82FF0E0EE0FFF1F19
:1013800080CFFC0101900020E9F73197AF01481BA5
:10139000590BBC0181E596E00C9468048F929F92F2
:1013A000AF92BF920F931F93CF93DF93CDB7DEB76A
:1013B000A1970FB6F894DEBF0FBECDBF19A2423081
:1013C00008F44AE08E010F5D1F4F842E912CB12C42
:1013D000A12CA50194010E94F825E62FB901CA01AC
:1013E000EA30F4F4E05DD801EE938D01232B242B39
:1013F000252B79F790E080E0109719F0CD010E943D
:10140000C109A1960FB6F894DEBF0FBECDBFDF9124
:10141000CF911F910F91BF90AF909F908F900895A3
:10142000E95CE1CF0F931F93CF93DF93EC018B0126
:10143000E0E06115710549F0FB0101900020E9F73A
:101440003197E61BEA3108F0E9E18B81877098E07B
:10145000E99FF0011124E82BEB838C818F718C8341
:10146000CE010E94C608482F50E0B801CE01079671
:101470000E946226CE010E94C6088C0F9D2F911DEE
:10148000FC011782CE01DF91CF911F910F9108953A
:10149000CF92DF92EF92FF92CF93DF936C01990F7F
:1014A000EE08FF08F7FE1FC06DE281E596E00E949E
:1014B0000805EC0166277727CB016C197D098E0999
:1014C0009F094AE00E94CE09C80FD91F8BED92E018
:1014D0000E94C1098C0F9D1FDF91CF91FF90EF906B
:1014E000DF90CF9008954AE0C701B6010E94CE096F
:1014F000EC01ECCFCF92DF92EF92FF920F931F930C
:10150000CF93DF93EC018881806291E0909357053F
:10151000809379051092580510927A058EEE96E028
:101520000E94470881E00E940007C8810E9433069C
:101530006B017C0180915105811165C081E0809330
:101540005105809350059FEF90934F0510924E05E3
:1015500010924D0580932C0580912C05C062CC0F14
:10156000C82BC0932C0580912B05813009F082C0D7
:1015700010922B050E9433066B017C0180912C0593
:101580008093BB008091530590915405A09155051F
:10159000B0915605892B8A2B8B2BA1F00E94330624
:1015A0000091530510915405209155053091560531
:1015B0006C197D098E099F09061717072807390737
:1015C00008F442C08091BC0083FDD8CF85EC8093A5
:1015D000BC000E9433066B017C0180915105813073
:1015E00009F44AC080914E05811168C080914E0572
:1015F000EDE2F5E0ABEFB4E090E0981751F1219106
:101600002D939F5FFACF8091530590915405A0913F
:101610005505B0915605892B8A2B8B2B09F48ACF5F
:101620000E943306009153051091540520915505F1
:10163000309156056C197D098E099F090617170709
:101640002807390708F076CF809152050E94DF06FF
:1016500080E01092200580931F058EEE96E00E9498
:101660000008DF91CF911F910F91FF90EF90DF90D5
:10167000CF90089585EEABCF80915305909154059E
:10168000A0915505B0915605892B8A2B8B2B09F417
:10169000A4CF0E9433060091530510915405209168
:1016A0005505309156056C197D098E099F0906175D
:1016B00017072807390708F090CFC6CF81E098CFE9
:1016C000CF93C62FC770683060F063E10E947A0A3A
:1016D00090E002C095958795CA95E2F78170CF9109
:1016E000089562E1F3CFFF920F931F93CF93DF939F
:1016F0001F92CDB7DEB78C016983F42EF8014783C2
:10170000608784E690E095838483642FCE01019600
:101710000E94600BF80116826F2DCE0101960E9487
:10172000600B882319F083E0F80186830E948B0602
:10173000F80160837183828393830F90DF91CF914F
:101740001F910F91FF900895CF92DF92EF92FF9239
:101750001F93CF93DF93EC016F8108960E94600B7B
:101760001E81912F977F9E831695117091E08111B4
:1017700001C090E01917B1F00E948B06688379834D
:101780008A839B838E8192E089278E838E8183FB5F
:10179000882780F9DF91CF911F91FF90EF90DF9024
:1017A000CF9008950E948B06C880D980EA80FB8084
:1017B000AB01BC014C195D096E097F098C819D81CB
:1017C000B0E0A0E0481759076A077B07F8F28E815E
:1017D00081701817D9F20E948B06688379838A83F7
:1017E0009B838E8191E089278860CFCFFF920F93F2
:1017F0001F93CF93DF93EC01162FF42E683008F47B
:10180000022F602FCE010E947A0A177041E050E04B
:1018100060E070E004C0440F551F661F771F1A95E3
:10182000D2F7FF2051F0482B602FCE01DF91CF91EE
:101830001F910F91FF900C94760840954823F4CFA8
:1018400085ED8093BC008091530590915405A09143
:101850005505B09156050796A11DB11D23E0B6951B
:10186000A795979587952A95D1F72091BC0024FDDF
:1018700003C01092510508954091530550915405AD
:101880006091550570915605452B462B472B69F302
:101890000097A105B10541F025E32A95F1F7000075
:1018A0000197A109B109E1CF809152050C94DF069F
:1018B000CF93DF9384EB95E00E94C604892B09F453
:1018C0008FC0C4E0D2E084EB95E00E94C604892B6F
:1018D000E1F184EB95E00E94A404909144039230DE
:1018E00009F474C0C0F4992391F1913061F7E0914B
:1018F000390321E02E0F20933903F0E0E058FB4F2D
:10190000808390913D03890F80933D0380913A033A
:101910002813D9CF58C0933009F45DC0943099F69C
:10192000843089F49091380380913D0398130BC063
:1019300080913B03883539F480913A038093A80461
:1019400081E08093B6040E94190981E04AC095E0C5
:10195000EFE3F3E0AEE3B3E001900D929A95E1F787
:101960008093430340913E03413009F0ACCF823075
:1019700009F0A9CF20913F0330914003231709F4C8
:10198000A2CF30933C038091410380933B0390911D
:10199000420390933A03830F890F820F80933D0394
:1019A0004093440310923903983218F00E941909A9
:1019B0008ACF809145033817C9F3821711F02F3F62
:1019C000A9F7911180CFD09344037DCF833071F775
:1019D0008093440378CF80933803C093440373CF3C
:1019E00080E0DF91CF910895FC0124812295269516
:1019F0002770213011F487810895211104C00796C2
:101A00000E94941F089580E00895FF920F931F9302
:101A1000CF93DF93FC012581223009F04FC0EC0108
:101A2000068110E00E94F40C95E0909FF001919FD8
:101A3000F00D1124E65EFB4F91E0811101C090E0B2
:101A4000948361E0811160E085E0F82EF09EF00162
:101A5000F19EF00D1124E65EFB4F82810E94A705E6
:101A60008E8190E0F89EF001F99EF00D1124E65E63
:101A7000FB4F648183569E4F0E94B4258EED92E009
:101A80000E94C1096E8170E090E080E04AE00E940F
:101A9000CE098AEF92E00E94C109CE010E94F40CA7
:101AA00021E030E0811102C030E020E0C901DF9187
:101AB000CF911F910F91FF900C94480ADF91CF9125
:101AC0001F910F91FF900895EF92FF920F931F9334
:101AD000CF93DF93CDB7DEB7C857D1090FB6F894CF
:101AE000DEBF0FBECDBF8E010E571F4FF801E19034
:101AF000F1908F010E948B064AE00E94CE0987E098
:101B000093E00E94C1099801A70168E770E0CE0147
:101B100001960E944C20CE0101960E94C10981E5E8
:101B200096E00E945A05C858DF4F0FB6F894DEBF02
:101B30000FBECDBFDF91CF911F910F91FF90EF901E
:101B400008958F929F92AF92BF92CF92DF92EF92C1
:101B5000FF920F931F93CF93DF93082FEB01809198
:101B6000B00588838B8140E2D42E82FD06C0CB0174
:101B70000E94C60857E0D52ED80E8091B305BB242D
:101B8000B39480FD03C00F3F09F0B12C1AE034E19B
:101B9000832E912C209709F075C010E08C818770FE
:101BA000833039F48D8129E0C22E23E0D22E813199
:101BB00021F0CE010E9426096C0194E1E92E93E008
:101BC000F92E112321F081E1E82E83E0F82E809197
:101BD000B4048F70982EAB80A2FAAA24A0F8CE018C
:101BE0000E94C6089C81F92FF295F695F770ED8159
:101BF00097707E816A815881498129E133E0B11073
:101C000006C02BE133E0112311F02DED32E0DF921D
:101C1000CF92FF92EF921F929F921F92AF921F92CC
:101C20008F931F92FF931F92EF931F929F931F9288
:101C30007F931F926F931F920F931F925F931F9238
:101C40004F933F932F9385E594E09F938F930E944A
:101C5000640D8DB79EB74E960FB6F8949EBF0FBE1B
:101C60008DBF812FDF91CF911F910F91FF90EF904A
:101C7000DF90CF90BF90AF909F908F9008951150BC
:101C800009F48BCF0E94580C882399F00E94851F7D
:101C9000B4010E942926E82EF12CFE1480F761E0A1
:101CA00070E080E090E00E9458060E94580CF39487
:101CB000F4CF61E08FE00E94A7058FE090E00197EC
:101CC000F1F781E090E00E945505602F84EB95E0EC
:101CD0000E94080510914503612F84EB95E00E9456
:101CE000080588E590E00E945505185A100F6D2DE3
:101CF00084EB95E00E9408051D0D82E090E00E94B3
:101D00005505CC2EEC2EFD2E8E2D8C198D1568F4DC
:101D1000F70181917F01082E000C990B0E94550557
:101D2000F70131978081180FEFCF83E090E00E9498
:101D30005505612F84EB95E00E94080584E090E052
:101D40000E94550584EB95E00E945A0560E08FE003
:101D50000E94A70511E022CF0F931F93CF93DF932B
:101D60008C01FC0182819091B30490FF12C08F3FDF
:101D700009F443C081E394E09F938F930E94640D24
:101D80000F900F90C0E08C2FDF91CF911F910F919A
:101D90000895D091B1058823D9F08F3F71F1B80132
:101DA0000E94A10DC82F882349F081E294E09F93FF
:101DB0008F930E94640D0F900F90E5CF8EE094E01A
:101DC0009F938F930E94640DD091B1050F900F9057
:101DD000B8018D2F0E94A10DC82F8091B1058D13E0
:101DE000D2CF8091B404C1110AC091E0980F9F70C6
:101DF000807F892B8093B404C6CFDFEFE9CF807F4B
:101E00008093B404C1E0BFCF2091B30422FD0C94B1
:101E1000AC0E87E494E09F938F930E94640D0F9023
:101E20000F9080E00895FC018091B005818394813A
:101E3000907F9160948380917C0580FF03C0CF01E7
:101E40000C94040F83E397E09F938F930E94640D9B
:101E50000F900F9080E008955F926F927F928F9223
:101E60009F92AF92BF92CF92DF92EF92FF920F9329
:101E70001F93CF93DF93E0911604F0911704EE0FB8
:101E8000FF1FE25BFC4F80911804909119042081A0
:101E90003181821B930B90931904809318048091D5
:101EA0007B00877F80937B0080E480937C0080911F
:101EB0007A00806480937A0080917A0086FDFCCF5E
:101EC0009091780080917900209116043091170448
:101ED0008927982789276AE070E00E942926F9015E
:101EE000EE0FFF1FE25BFC4F71836083809118044B
:101EF00090911904860F971F9093190480931804EA
:101F00002F5F3F4F243631050CF08CC130931704FE
:101F10002093160464E670E00E942926CB0170939A
:101F20004D0360934C030E94480A61E070E080E03A
:101F300090E00E94580620914C0330914D0380910F
:101F40004A0390914B032817390711F18091070F2D
:101F5000877080618093070F8091080F8F71806474
:101F60008093080F30930C0F20930B0F84E09FE0B9
:101F70000E94130F80914C0390914D0390934B035B
:101F800080934A036AE070E080E090E00E94580687
:101F900020E5E22E2EE0F22ECAE1D4E00DE911E0B8
:101FA000CC24C39431E2B32EC7010E94A40B882332
:101FB000D9F0F701868180FD17C06C81D62EDC2414
:101FC000DC828A810E94A705B09EC001B19E900D5F
:101FD00011246D2D815899420E94BA080E94130F56
:101FE0006C81C8010E94B425F9E0EF0EF11C259622
:101FF0000F5F1F4F013B81E01807B1F60E948B066F
:102000004B015C0181EAC82E89E0D82E00E218E07D
:10201000C0EED9E091EE692E97E0792EF12CE12CFB
:1020200055245394C6010E94A40B882349F0F6015D
:10203000868180FD05C08D829E82AF82B886598ED2
:10204000898D8823C9F1F8011582848181110EC020
:10205000548261E082810E94A705F8016481C70172
:102060008650994F0E94BA080E94130F8D819E815D
:10207000AF81B885B501A401481B590B6A0B7B0BD6
:102080008D859E85AF85B88984179507A607B70704
:1020900098F46C8165256C838A810E94A7056C8108
:1020A000C7018654974F0E94BA080E94130F898671
:1020B0009A86AB86BC86198E8C81811120C0898559
:1020C0009A85AB85BC85B501A401481B590B6A0BE9
:1020D0007B0B89899A89AB89BC89481759076A079C
:1020E0007B0768F05C8261E08A810E94A7056C81B1
:1020F000C7018654974F0E94BA080E94130FC3016C
:102100000E94A40B882351F0F301868180FD06C054
:10211000F80186829782A086B1865582F801858172
:102120008823D1F1198E8C8181110DC05C8261E010
:102130008A810E94A7056C81C7018654974F0E942F
:10214000BA080E94130FF80186819781A085B18596
:10215000B501A401481B590B6A0B7B0B868597853B
:10216000A089B18984179507A607B707A8F46481E9
:102170006525648382810E94A705F8016481C701F7
:102180008650994F0E94BA080E94130FF801828668
:102190009386A486B5861582F8018481811121C0B9
:1021A00082859385A485B585B501A401481B590B8B
:1021B0006A0B7B0B82899389A489B58948175907D3
:1021C0006A077B0770F0548261E082810E94A70554
:1021D000F8016481C7018650994F0E94BA080E9495
:1021E000130FF9E0CF0ED11C0A5E1F4F6A9689E0EB
:1021F000680E711CE1E2EE0EF11CF7EEEF16F10431
:1022000009F010CFDF91CF911F910F91FF90EF90C8
:10221000DF90CF90BF90AF909F908F907F906F9006
:102220005F900895109217041092160473CE2F92A7
:102230003F924F925F926F927F928F929F92AF9256
:10224000BF92CF92DF92EF92FF920F931F93CF93A3
:10225000DF938DE00E94390460E08DE00E94A705C5
:10226000EEE4F3E01192119284E0E631F807D1F741
:1022700060E089E493E00E94910861E088E493E0E3
:102280000E94910863E087E493E00E949108CFE800
:102290006C2EC2E07C2EDAE1ED2ED4E0FD2E17E6A6
:1022A000812E12E0912E0CEBA02E0BE0B02EC0E59B
:1022B000DEE0D12CC12C82E3482E512CF301108199
:1022C0002180F2E06F0E711CF70110832182F4016E
:1022D00030808181F2E08F0E911CF701328283837E
:1022E000F501C68282E0858301E020E041E0612FB4
:1022F0009DE0C916D1040CF02BC189E493E00E9443
:10230000F60B0DE02CE041E0612F89E493E00E94A0
:10231000F60B188219821A821B82EAE0F0E0FD8334
:10232000EC831E821F82412F522D60914903CE0102
:102330000E94730B5D824C82832D0E943904C6017A
:1023400083569E4F0E949C2511E0811101C010E030
:10235000F701148361E0811160E0832D0E94A705DD
:10236000612FC5010E94BA080E94130FFFEFCF1A18
:10237000DF0A85E0E80EF11C91E2A90EB11C299656
:10238000E4E1CE16D10409F099CF69E5A62E62E00A
:10239000B62EC0EED9E07BE4672E72E0772EEAEB32
:1023A000CE2EE8E0DE2EF1EAEF2EF9E0FF2E10E06F
:1023B000AAE08A2E912CB2E34B2E512CF5013080ED
:1023C0002180F2E0AF0EB11C38822982F3018191A5
:1023D00091913F019B838A83F601168382E0858376
:1023E00001E020E041E0632D87E493E00E94F60BDA
:1023F0000DE02CE041E0688187E493E00E94F60B59
:102400008A810E94390481E08C8361E08A810E9484
:10241000A7056C81C6010E94BA080E94130FF7013C
:102420001082118212821382958284821682178210
:10243000432D522D60914703C7010E94730BF70192
:10244000558244826A961F5FF1E2CF0ED11C89E06B
:10245000E80EF11C173009F0B1CF8DE3A82E82E011
:10246000B82EC0E2D8E09FE2692E92E0792E2AEFE2
:10247000C22E26E0D22E31EEE32E37E0F32E10E00E
:102480004AE0842E912C52E3452E512CF5013080E8
:102490002180F2E0AF0EB11C38822982F3018191D4
:1024A00091913F019B838A83F601168382E08583A5
:1024B00001E020E041E0632D87E493E00E94F60B09
:1024C0000DE02CE041E0688187E493E00E94F60B88
:1024D0008A810E94390481E08C8361E08A810E94B4
:1024E000A7056C81C6010E94BA080E94130FF7016C
:1024F0001082118212821382958284821682178240
:10250000432D522D60914703C7010E94730BF701C1
:102510005582448266961F5FF1E2CF0ED11C89E09E
:10252000E80EF11C173009F0B1CFDF91CF911F9168
:102530000F91FF90EF90DF90CF90BF90AF909F9062
:102540008F907F906F905F904F903F902F90089565
:1025500088E493E00E94F60B0DE02CE041E0612F4F
:1025600088E493E00E94F60B412F522D60914803BE
:10257000CE010E94730BE0CECF93C82F262F50E0E0
:1025800040E0682F80E00E9458046DE173E0CF3F87
:1025900011F06DED72E00E94120ACF910C94040FBD
:1025A000CF932BE043E050E06FEF80E00E945804AF
:1025B00063E273E00E94120A0E94040F2CE043E0E1
:1025C00050E06FEF80E00E94580463E373E00E94E4
:1025D000120A0E94040F60E170E082E30E94BC12C4
:1025E000C0E063E070E08C2F0E94BC12CF5FC4316A
:1025F000C1F7CF9108952FE043E050E06FEF80E006
:102600000E9458046DED72E00E94120AE5E2FFE0BC
:10261000838187708061838384818F71806C8483E0
:1026200081E087831086CF010E94040F8FE00E9413
:10263000CE1561E170E08FEF0E94BC1226E043E00E
:1026400050E06FEF80E00E9458046091B1050E9455
:10265000BA080E94040F86E00E94CE150C94D01296
:102660002F923F924F925F926F927F928F929F92A2
:10267000AF92BF92CF92DF92EF92FF920F931F9390
:10268000CF93DF93CDB7DEB7A2970FB6F894DEBF36
:102690000FBECDBF26E02AA322242A9482E0382E42
:1026A00083E0482E532C98E2892E96E0992E0E94C2
:1026B000580CE090B604EE2009F434C23AA131502F
:1026C0003AA3332309F42EC21091A804412F50E0FD
:1026D00060E874E086E49FE00E9459261092B604F8
:1026E00081E2E6E4FFE0DE01119601900D928A9509
:1026F000E1F70C81802F83708230C9F6CE010196FC
:102700000E94C60802FD89E1895F1813D0CF86E4D4
:102710009FE00E94C608682E80914A0F8770F82EAD
:1027200010914B0F0091470FC090460F7090480FCB
:1027300083E0F81204C089E093E0113121F086E4CF
:102740009FE00E942609A62CB12C9F938F93809125
:10275000490F82FB882780F91F928F931F926F92F7
:1027600080914A0F8295869587701F928F931F9252
:102770001F931F92FF9280914C0F1F928F931F9275
:102780007F921F92CF921F920F9323EA36E03F93DE
:102790002F930E94640D8091B40480688093B404E8
:1027A0000FB6F894DEBF0FBECDBF8091B005781292
:1027B00077C1F501EA5BF04F178280914A0F83FFE2
:1027C00021C081E996E09F938F930E94640D81E27E
:1027D000E6E4FFE0A5E2BFE001900D928A95E1F703
:1027E0008091290F877E80618093290F8091B005A9
:1027F0008093260F0093270F85E29FE00E94040F2D
:102800000F900F9090914A0F94FD41C133E0F31265
:1028100036C180914B0F21EF280F233008F447CFAA
:10282000143009F444CF183091F51091B30410FF1F
:1028300027C086E49FE00E94F40C8F3F09F437CF55
:102840008F5F8F3F09F433CF9091B205891708F05D
:102850002ECF11FD2CCF8093B2050093B1051F92AE
:102860008F931F920F9385E796E09F938F930E941B
:10287000640D0F900F900F900F900F900F9017CF47
:102880008DE596E09F938F930E94640D48C11831A7
:10289000D9F486E49FE00E94F40C1F928F931F925C
:1028A0000F9381E496E09F938F930E94640D29E13A
:1028B00043E050E06FEF802F0E94580461E00E94D7
:1028C000BA080E94AC0ED5CF1931E1F48091B3045F
:1028D00083FF14C0877F8093B30486E49FE00E9447
:1028E000F40C8093B5041F928F939F928F920E9455
:1028F000640D0F900F900F900F90D9CE8BE096E063
:102900009F93C1CF1E3109F4D2CE1D31C1F42FE106
:1029100043E050E06FEF80E00E945804FC018381A7
:1029200087708061838384818F718064848380E079
:102930009FEF90878783CF010E94AC0EB8CE209185
:10294000470F2111A1C08D3059F488E198E00FB6EE
:10295000F894A895809360000FBE90936000FFCF1D
:102960008B31A9F486E49FE00E94F40C91E0811180
:1029700001C090E080917C0590FB80F980937C05FC
:102980001F929F9325EB35E03F932F93B0CF863076
:10299000A1F480914D0F882329F0EE24E3948D3427
:1029A00009F0E12CE0927B0541E050E063E071E04A
:1029B0008BE795E00E94A4257ACE833119F40E941A
:1029C000FB1275CE8231E1F40E94DA086B017C01C2
:1029D00026E143E050E06FEF80E00E945804FC01E4
:1029E000838187708062838384818F71806A84830E
:1029F000C782D086E186F286CF010E94040F57CEAF
:102A00008230A9F422E043E050E06FEF80E00E94C2
:102A10005804FC01838187708062838384818F7175
:102A2000806A84832782308641865286E5CF813052
:102A300001F520E030E0232B09F439CE92959695EC
:102A40009770953059F460914D0F70914E0F8091B1
:102A50004F0F9091500F0E94000029CE911105C098
:102A60008DE49FE00E94B21FF6CF60E070E0CB01E2
:102A7000F2CF8A3009F41BCE8C3109F418CE86E4EB
:102A80009FE00E94050D13CE8A31C9F710CE8DEF5D
:102A900095E09F938F930E94640D0F900F90EFCF5E
:102AA0003FEF8AEC95E073122BCF81EF95E09F9377
:102AB0008F930E94640D0F900F9033E0F31221C0AA
:102AC0008091B30482FF03C0173009F4F0CD1431B4
:102AD00009F0EDCD8091B105C812E9CD0E948B06B9
:102AE0007370882799270E94580625E143E050E03B
:102AF0006FEF802F0E9458046091B1050E94BA08C0
:102B00001BCF8091B105C812D2CD81EE95E09F9385
:102B10008F930E94640D86E49FE00E94050D0F9044
:102B20000F90C5CDA2960FB6F894DEBF0FBECDBFF5
:102B3000DF91CF911F910F91FF90EF90DF90CF9099
:102B4000BF90AF909F908F907F906F905F904F90CD
:102B50003F902F90089580914603882361F01F9243
:102B60008F938DEA94E09F938F930E94640D0F9052
:102B70000F900F900F90809146038F5F80934603D4
:102B8000A8950E94CF088091B30484FD0E94301361
:102B9000809146038150809346030895CF92DF923F
:102BA000EF92FF92CF93DF93D82F80912A0588234D
:102BB00061F01F928F9383E297E09F938F930E941F
:102BC000640D0F900F900F900F9080912A058F5FEA
:102BD00080932A050E948B066B017C0180914A0F2D
:102BE000876080934A0FC0E00E948B066C197D09B4
:102BF0008E099F09603D77408105910578F4C111E8
:102C00000DC00E94AB1580914A0F8770833061F729
:102C1000C1E080914B0F8D13E6CFE6CF80912A055E
:102C2000815080932A058C2FDF91CF91FF90EF90F8
:102C3000DF90CF900895CF9380917C0581FD28C0CF
:102C40000E94FB1280EA94E09F938F930E94640D90
:102C500080917C05816080937C050F900F90C4E08B
:102C60002AE143E050E06FEF80E00E94580462E008
:102C70000E94BA080E94040F8BE10E94CE158111B8
:102C800002C0C15069F780917C05826080937C0509
:102C9000CF9108950F931F930E94DA082091B404F6
:102CA00020772037B9F000E117E220E030E0061786
:102CB00017072807390798F48CEF93E09F938F93B9
:102CC0000E94640D0F900F9087E192E01F910F9189
:102CD0000C94ED0800E61AEE20E030E0E8CF1F91FA
:102CE0000F9108958091B404982F9077903759F000
:102CF000982F92959F709F5F97709295907F8F7895
:102D0000892B8093B4048091B404829587701F92BC
:102D10008F938BEE93E09F938F930E94640D80912D
:102D2000B3048B7F8F7E8093B3048DED93E09F93EC
:102D30008F930E94640D80ED93E09F938F930E9488
:102D4000640D8DB79EB708960FB6F8949EBF0FBE60
:102D50008DBF08958091B4048F70863060F087EB4A
:102D600093E09F938F930E94640D0F900F9083E1E7
:102D700092E00C94ED0808958091B2051F928F9314
:102D80008091B1051F928F938091B0051F928F9310
:102D900088E993E09F938F930E94640D8091B30420
:102DA00084608093B3048091B40480788093B404E9
:102DB000E0917E04F0917F048DB79EB708960FB620
:102DC000F8949EBF0FBE8DBF309709F019940895F7
:102DD0008091B5048F3F81F10E948B066093AF0410
:102DE0007093B0048093B1049093B2048CE893E0A4
:102DF0009F938F930E94640D9091B5048091B205CA
:102E00000F900F909817A1F01F929F931F928F938E
:102E100084E793E09F938F930E94640D8091B504A3
:102E20008093B2050F900F900F900F900F900F901E
:102E30008FE092E00C94ED080E94DA08613D774043
:102E400081059105B8F08091B304803618F48BE0C9
:102E500092E0F0CF85E693E09F938F930E94640DFC
:102E60008091B304877F8093B3040F900F9083E128
:102E700092E0E0CF08958CE593E09F938F930E94BA
:102E8000640D8FEF8093B504E3EBF4E080818860FC
:102E9000808328E143E050E06FEF80E00E94580417
:102EA00061E00E94BA080F900F900C94AC0E8091D4
:102EB000B0058F3F61F081E593E09F938F930E946F
:102EC000640D0F900F908BE092E00C94ED080E943F
:102ED000DA08613D77408105910590F08091B30457
:102EE000803618F487E092E0F0CF83E493E09F937C
:102EF0008F930E94640D0F900F9083E092E0E5CFD6
:102F000008958BE393E09F938F930E94640D0F903D
:102F10000F908091B0058F3FA9F48FE293E09F93CB
:102F20008F930E94640D23E043E050E06FEF80E058
:102F30000E9458046DED72E00E94120A0F900F90EB
:102F40000C94AC0E08950E94DA08613D774081052B
:102F5000910520F48091B30481FF2FC08091B105C9
:102F60008F3F89F082E293E09F938F930E94640DDC
:102F70008091B3048E7F8093B3040F900F9087E00D
:102F800092E00C94ED088091B304803658F48EEFF3
:102F900092E09F938F930E94640D0F900F9083E1B6
:102FA00092E0EFCF82E193E09F938F930E94640DB4
:102FB0000F900F9083E092E0E4CF089584EF92E0C9
:102FC0009F938F930E94640DE3EBF4E08081897FEF
:102FD00081608083E0EBF5E08FEF8283818327E0DF
:102FE00043E050E06FEF0E9458046DED72E00E94E4
:102FF000120A0F900F900C94AC0ECF93E091C40581
:10300000F091C50582E08083E091C005F091C10593
:103010001082E091C205F091C30587E6808310928B
:10302000CC05E091C805F091C90586E08083E09168
:10303000C605F091C705808180618083E091C60557
:10304000F091C705808188608083E091C605F0918A
:10305000C705808180688083E091C605F091C7052F
:1030600080818F7D80830E9419098FE00E9439043E
:1030700060E08FE00E94A70583EE92E09F938F931C
:103080000E94640D8091B30480618093B3048091A9
:10309000B3058E7F8093B3051F92C1E0CF938FEC71
:1030A00092E09F938F930E94640DC093B00561E0FE
:1030B00090E080E00E94B425C091B0050F900F9081
:1030C0000F900F900F900F90CF3FB9F08FEF8C0FB4
:1030D0008E3FB0F4C09345036C2F90E080E00E94D7
:1030E000B4251F92CF9388EA92E09F938F930E941A
:1030F000640D0F900F900F900F9083E192E00EC03F
:103100001F921F928AEB92E09F938F930E94640D0F
:103110000F900F900F900F9083E092E0CF910C945E
:10312000ED088EE992E09F938F930E94640DE3EB8C
:10313000F4E08081877F8F7E80831092AF041092AD
:10314000B0041092B1041092B2040F900F9044E0BA
:1031500050E070E060E080EB95E00C948C251F92CD
:103160000F920FB60F9211240BB60F922F933F932D
:103170004F935F936F937F938F939F93AF93BF937F
:10318000EF93FF9384EB95E00E94E604FF91EF91AB
:10319000BF91AF919F918F917F916F915F914F916F
:1031A0003F912F910F900BBE0F900FBE0F901F906D
:1031B00018951F920F920FB60F9211240BB60F9213
:1031C0002F938F939F93EF93FF93E091C405F0911A
:1031D000C5058081E091CA05F091CB0582FD1DC037
:1031E00090818091CD058F5F8F732091CE058217DE
:1031F00041F0E091CD05F0E0EC54FA4F958F8093CB
:10320000CD05FF91EF919F918F912F910F900BBE64
:103210000F900FBE0F901F9018958081F2CF1F92D4
:103220000F920FB60F9211240BB60F922F933F936C
:103230004F935F936F937F938F939F93AF93BF93BE
:10324000EF93FF9381E596E00E94E604FF91EF91F2
:10325000BF91AF919F918F917F916F915F914F91AE
:103260003F912F910F900BBE0F900FBE0F901F90AC
:1032700018951F920F920FB60F9211240BB60F9252
:103280002F938F939F93EF93FF93E0916106F091BB
:1032900062068081E0916706F091680682FD1DC09C
:1032A000908180916A068F5F8F7320916B068217E1
:1032B00041F0E0916A06F0E0EF5AF94F958F809364
:1032C0006A06FF91EF919F918F912F910F900BBE06
:1032D0000F900FBE0F901F9018958081F2CF1F9214
:1032E0000F920FB60F9211242F933F938F939F93BA
:1032F000AF93BF938091220590912305A09124055F
:10330000B09125053091210523E0230F2D3758F585
:103310000196A11DB11D2093210580932205909354
:103320002305A0932405B09325058091260590914F
:103330002705A0912805B09129050196A11DB11D71
:103340008093260590932705A0932805B09329051F
:10335000BF91AF919F918F913F912F910F900FBE91
:103360000F901F90189526E8230F0296A11DB11DFE
:10337000D2CF1F920F920FB60F9211240BB60F925D
:103380002F933F934F935F936F937F938F939F936D
:10339000AF93BF93EF93FF93E0912902F0912A023C
:1033A0001995FF91EF91BF91AF919F918F917F916F
:1033B0006F915F914F913F912F910F900BBE0F90A6
:1033C0000FBE0F901F9018951F920F920FB60F927D
:1033D00011240BB60F922F933F934F935F936F93EC
:1033E0007F938F939F93AF93BF93EF93FF93E0915E
:1033F0002702F09128021995FF91EF91BF91AF91AB
:103400009F918F917F916F915F914F913F912F91FC
:103410000F900BBE0F900FBE0F901F9018951F922C
:103420000F920FB60F9211240BB60F922F933F936A
:103430004F935F936F937F938F939F93AF93BF93BC
:10344000EF93FF93E0911D02F0911E021995FF91F9
:10345000EF91BF91AF919F918F917F916F915F910C
:103460004F913F912F910F900BBE0F900FBE0F9079
:103470001F9018951F920F920FB60F9211240BB642
:103480000F922F933F934F935F936F937F938F93FD
:103490009F93AF93BF93EF93FF93E0911B02F09143
:1034A0001C021995FF91EF91BF91AF919F918F9160
:1034B0007F916F915F914F913F912F910F900BBE34
:1034C0000F900FBE0F901F9018951F920F920FB67E
:1034D0000F9211240BB60F922F933F934F935F934C
:1034E0006F937F938F939F93AF93BF93EF93FF93CC
:1034F000E0912502F09126021995FF91EF91BF917D
:10350000AF919F918F917F916F915F914F913F917B
:103510002F910F900BBE0F900FBE0F901F9018951C
:103520001F920F920FB60F9211240BB60F922F938A
:103530003F934F935F936F937F938F939F93AF933B
:10354000BF93EF93FF93E0912302F091240219952A
:10355000FF91EF91BF91AF919F918F917F916F916B
:103560005F914F913F912F910F900BBE0F900FBE27
:103570000F901F9018951F920F920FB60F92112463
:103580000BB60F922F933F934F935F936F937F935D
:103590008F939F93AF93BF93EF93FF93E09121029B
:1035A000F09122021995FF91EF91BF91AF919F91F8
:1035B0008F917F916F915F914F913F912F910F90DC
:1035C0000BBE0F900FBE0F901F9018951F920F9279
:1035D0000FB60F9211240BB60F922F933F934F9378
:1035E0005F936F937F938F939F93AF93BF93EF936B
:1035F000FF93E0911F02F09120021995FF91EF9146
:10360000BF91AF919F918F917F916F915F914F91FA
:103610003F912F910F900BBE0F900FBE0F901F90F8
:1036200018951F920F920FB60F9211240BB60F929E
:103630002F933F934F935F936F937F938F939F93BA
:10364000AF93BF93EF93FF938091B900887F80364B
:1036500009F44DC008F040C0883209F4A9C028F52B
:10366000803109F49DC0C8F4882309F4FBC0883078
:1036700009F496C0FF91EF91BF91AF919F918F9107
:103680007F916F915F914F913F912F910F900BBE62
:103690000F900FBE0F901F901895883109F488C0C5
:1036A000803241F780934F0514C0803409F49DC0E7
:1036B00040F48033B9F38833E9F680934F0585EC05
:1036C000B0C0803509F485C0883509F496C08834C7
:1036D00089F60E94200CCECF883909F48CC038F5C9
:1036E000883729F050F4883611F0803719F683E0D6
:1036F000809351051092FA0457C0883809F47BC0B2
:10370000803919F0803809F0B5CF8091FA04803201
:1037100008F071C0E091FA0481E08E0F8093FA0402
:103720008091BB00F0E0E652FB4F80833DC0803BC0
:1037300039F0E0F4803A09F479C0883A09F09ACF78
:1037400084E0809351051092D9041092D804E0913E
:103750001D05F0911E0519958091D80481110FC0A7
:1037600081E08093D8041092B80409C0803C09F429
:10377000A6CF883C09F4A3CF883B09F07BCFE0912A
:10378000D90481E08E0F8093D904F0E0E854FB4F18
:1037900080818093BB009091D9048091D80429C086
:1037A00080912C058093BB0085EC8093BC0062CF98
:1037B00090914E0580914D05981758F5E0914E0572
:1037C00081E08E0F80934E05F0E0E35DFA4F80813B
:1037D000E9CFE0914E0581E08E0F80934E058091F8
:1037E000BB00F0E0E35DFA4F808390914E0580913D
:1037F0004D059817C8F285E8D8CFE0914E0581E0D5
:103800008E0F80934E058091BB00F0E0E35DFA4F90
:1038100080838091500581115CCF81E080932B05DE
:1038200084EA8093BC001092510524CF85EC8093EC
:10383000BC00109251058091FA04803230F4E0917E
:10384000FA04F0E0E652FB4F10826091FA0470E057
:10385000E0911B05F0911C058AED94E019951092FA
:10386000FA0408CF10924F0534CF1F920F920FB673
:103870000F9211240F900FBE0F901F901895CF93A9
:10388000DF93FC011082118212821482158216824B
:10389000DC0117968AE1ED0119928A95E9F782E039
:1038A0008383DF91CF9108950F931F93CF93DF937D
:1038B0001092B7051092B60588EE93E0A0E0B0E054
:1038C0008093B8059093B905A093BA05B093BB0552
:1038D0002BEB32E03093B5052093B40545ED50E075
:1038E0005093C1054093C00544ED50E05093C3058B
:1038F0004093C20540ED50E05093C5054093C40588
:1039000041ED50E05093C7054093C60542ED50E0AD
:103910005093C9054093C80546ED50E05093CB0540
:103920004093CA051092CD051092CE051092CF0596
:103930001092D005109254061092530680935506AB
:1039400090935606A0935706B093580630935206AC
:103950002093510625EC30E030935E0620935D06FF
:1039600024EC30E03093600620935F0620EC30E0DA
:10397000309362062093610621EC30E030936406B8
:103980002093630622EC30E03093660620936506B0
:1039900026EC30E0309368062093670610926A06A2
:1039A00010926B0610926C0610926D061092F10642
:1039B0001092F0068093F2069093F306A093F4061B
:1039C000B093F5068DEC92E09093EF068093EE06AF
:1039D00086E49FE00E943F1C85E29FE00E943F1C1E
:1039E00084E09FE00E943F1C82E380930A0F87E1FE
:1039F0008093090FE0E5FEE08AE090E010821182FA
:103A000012821382958384831682178239962FE05F
:103A1000E430F20799F7CCEBDBE0CE010E943F1CCB
:103A2000A1968EE0C035D807C1F7EDE7FBE08AE04C
:103A300090E0108211821282138295838483168211
:103A400017823996CBE0EC3BFC0799F7C6E9DAE040
:103A50000DE71BE0CE010E943F1CA1960C171D072D
:103A6000C9F7E0EEF9E004EF11E020E030E040E3D8
:103A700055E760E070E08AE090E0A0E0B0E0058704
:103A800016872787308B418B528B638B748B858B8A
:103A9000968BA78BB08F118E7A96CAE0E639FC0719
:103AA00071F7E1EAF9E080EE99E02AE030E0108277
:103AB00011821282138235832483168217823996EB
:103AC0008E179F07A1F7CAEBD8E001EA19E0CE01F3
:103AD0000E943F1CA1960C171D07C9F7E0E2F8E011
:103AE00044EF51E060E070E088ED99E5A0E0B0E0DF
:103AF000158246875787608B718B828B938BA48B43
:103B0000B58B769628E0EA3BF20791F7E1EEF7E015
:103B100080E298E02AE030E0108211821282138263
:103B2000358324831682178239968E179F07A1F753
:103B3000CAEFD6E001EE17E0CE010E943F1CA1962D
:103B40000C171D07C9F7DF91CF911F910F910895B1
:103B5000789484B5826084BD84B5816084BD85B568
:103B6000826085BD85B5816085BD80916E00816074
:103B700080936E001092810080918100826080931A
:103B8000810080918100816080938100809180001C
:103B90008160809380008091B10084608093B10047
:103BA0008091B00081608093B0008091910082602C
:103BB0008093910080919100816080939100809129
:103BC00090008160809390008091A100826080933A
:103BD000A1008091A10081608093A1008091A0004C
:103BE00081608093A00080912101826080932101F7
:103BF0008091210181608093210180912001816069
:103C00008093200180917A00846080937A00809173
:103C10007A00826080937A0080917A00816080933C
:103C20007A0080917A00806880937A001092C100B7
:103C3000A89580E090E0892B11F00E940000E091AF
:103C40006106F091620682E08083E0915D06F0916A
:103C50005E061082E0915F06F091600680E180834D
:103C600010926906E0916506F091660686E0808311
:103C7000E0916306F0916406808180618083E09129
:103C80006306F0916406808188608083E09163061A
:103C9000F0916406808180688083E0916306F091F2
:103CA000640680818F7D8083C0E1D0E0F12CFE012D
:103CB000F595E795EC53FB4FE491C0FFACC0EF7076
:103CC000E83008F0ADC0F0E0EC53FB4FF4906F2DFE
:103CD00081E596E00E9408052196C23FD10539F79B
:103CE000CDEBD4E0FE016491662339F081E596E0E6
:103CF0000E9408052196892BA9F78BED92E00E947E
:103D0000C1091F928FEF8F931F9280E18F938FE7EE
:103D100095E09F938F930E94640D80917C058D7F29
:103D200080937C050F900F900F900F900F900F9045
:103D300080E090E0892B51F082E795E09F938F938C
:103D40000E94640D0E9400000F900F9041E050E02F
:103D500063E071E08BE795E00E948C256FEF81E0D6
:103D600090E00E94B4258091B4048F788093B404CD
:103D70001092AA041092A90487E192E00E94ED0833
:103D80008BE196E190937F0480937E041F921F92B3
:103D90001F921F928DE395E09F938F930E94640D75
:103DA0000E948B060F900F900F900F900F900F9026
:103DB0000E948B060E94CF088091B30484FD2DC021
:103DC0008091B30482FB882780F9A895882381F32A
:103DD00085E695E09F938F930E94640D0E941711D2
:103DE0008091B30482FB882780F91F928F938DE422
:103DF00095E09F938F930E94640DA8950F900F906C
:103E00000F900F900F900F900E94AB150E942C0FF7
:103E10000E947A05F9CFE29552CF0E943013D0CF9D
:103E20001BEF1E0F00E06F2D81E596E00E94080554
:103E30000F5F0117C0F350CFEF920F931F93CF93F3
:103E4000DF93E80134E047FD34E1042E000C550B0C
:103E500057FF03C0519541955109E32E022F242F9E
:103E6000AE010E948722CE01DF91CF911F910F9169
:103E7000EF9008958F929F92AF92BF92CF92DF9270
:103E8000EF92FF92CF93DF93EC01688179818A8171
:103E90009B81611571058105910521F464E279ED3D
:103EA0008BE597E02DE133EF41E050E00E94C6251D
:103EB00049015A019B01AC01A7EAB1E40E94E52542
:103EC0006B017C01ACEEB4EFA50194010E94F325D7
:103ED000DC01CB018C0D9D1DAE1DBF1DB7FF03C0C6
:103EE0000197A109B04888839983AA83BB839F77F0
:103EF000DF91CF91FF90EF90DF90CF90BF90AF9088
:103F00009F908F9008950C943A1F8BE292E00C944E
:103F10003A1FB0E0A0E080932B0290932C02A09374
:103F20002D02B0932E020895FC0188279927E8946A
:103F300021912032E9F3293010F02E30C8F32B32D2
:103F400041F02D3239F4689404C00E940820820F99
:103F5000911D219120532A30C0F31EF49095819534
:103F60009F4F08951F93FC0199278827BC01E8946F
:103F700011911032E9F3193010F01E30C8F31B32E2
:103F800051F01D3249F4689406C00E94F31F610F7E
:103F9000711D811D911D119110531A30B0F33EF423
:103FA00090958095709561957F4F8F4F9F4F1F9192
:103FB0000895BB274A3031F4992322F4BDE290954D
:103FC00081959F4F0C943320BB272A3051F49923BD
:103FD00042F4BDE290958095709561957F4F8F4F2B
:103FE0009F4F0C941120592F482F372F262F660FE3
:103FF000771F881F991F660F771F881F991F620FF1
:10400000731F841F951F660F771F881F991F0895C0
:104010007AE0979F902D879F802D910D1124089510
:10402000BB27FA01A62F6217710581059105330B95
:1040300030FB66F0AA27660F771F881F991FAA1FFB
:10404000A21710F0A21B63953850A9F7A05DAA3300
:1040500008F0A95DA19336F7B111B1931082CA019E
:104060000C94EE24BB27FB015527AA27880F991F24
:10407000AA1FA41710F0A41B83955051B9F7A05D97
:10408000AA3308F0A95DA193009779F7B111B19314
:104090001192CB010C94EE240F931F93CF93DF93D7
:1040A000CDB7DEB72E970FB6F894DEBF0FBECDBFEB
:1040B0008C01FA018EE08C831A83098377FF02C09A
:1040C00060E070E8615071097E836D83A901BF01D2
:1040D000CE0101960E9485204D815E8157FD0AC068
:1040E0002F813885421753070CF49A01020F131FD2
:1040F000F80110822E960FB6F894DEBF0FBECDBF2A
:10410000DF91CF911F910F9108952F923F924F927F
:104110005F926F927F928F929F92AF92BF92CF9257
:10412000DF92EF92FF920F931F93CF93DF9300D014
:1041300000D000D01F921F92CDB7DEB77C013B01AB
:104140008A01FC0117821682838181FFDDC1CE01C5
:1041500001965C01F7019381F30193FD859193FF33
:1041600081913F01882309F453C1853239F493FDCD
:10417000859193FF81913F01853229F4B70190E049
:104180000E94FE24E7CF912C212C312CFFE1F31566
:1041900038F08B3211F190F4803209F1833229F139
:1041A00037FC3CC020ED280F2A3050F536FE20C0E9
:1041B0008AE0989E200D1124922E06C08D3291F037
:1041C000803371F7689430F8F30193FD859193FF84
:1041D00081913F018111DACF21C0689431F8689450
:1041E00032F8F2CF689433F8EFCF689434F8ECCF1C
:1041F000EAE02E9E200D1124222E689435F8E4CF9B
:104200008E3229F436FC04C1689436F8DDCF8C3642
:1042100019F4689437F8D8CF8836B1F2982F9F7D7B
:1042200095549330E0F08336A1F18337C1F18335A3
:1042300009F063C02801F2E04F0E511CF801C08064
:10424000D180692D70E036FC02C06FEF7FEFC601B0
:104250000E94D8244C01689437F882010AC00C5F90
:104260001F4FFFE3F98388248394912C6501E89420
:1042700037F833FE2DC0522C8114910471F555206E
:1042800009F468CFB70180E290E00E94FE245A94BE
:10429000F6CFF801808189830E5F1F4FE4CF28019C
:1042A000F2E04F0E511CF801C080D180692D70E002
:1042B00036FC02C06FEF7FEFC6010E94E3244C0181
:1042C0008201D5CFB70180E290E00E94FE242A94BB
:1042D0002814190409F0B0F7CECFF60137FC859108
:1042E00037FE81916F01B70190E00E94FE245110CA
:1042F0005A94F1E08F1A9108BFCF843619F08936AD
:1043000009F077C0F80137FE6BC06081718182814E
:1043100093810C5F1F4FF32DFF763F2E97FF09C04F
:1043200090958095709561957F4F8F4F9F4F6894C2
:1043300037F82AE030E0A5010E942E25C82ECA18C1
:104340008C2C432C36FE0CC0E89440F8C91440F481
:1043500034FE05C032FC03C0F32DFE7E4F2E892CA7
:1043600044FEAAC0FE01EC0DF11D8081803309F0EE
:104370009CC0242D297E422E842D8870582E43FC0B
:10438000AAC040FEA4C09C2C821418F42C0C922CC1
:10439000981844FEA6C0B70180E390E00E94FE2476
:1043A00042FE09C088E790E041FE02C088E590E047
:1043B000B7010E94FE24C91408F49FC0CA94D12CEE
:1043C0009FEFC91AD90ACA0CDB1CF60182916F0152
:1043D000B70190E00E94FE24AC14BD04B1F74FCFAA
:1043E00060817181072E000C880B990B0E5F1F4FA7
:1043F00092CFD32CE894D4F82AE030E08537E1F16D
:10440000232D297FD22E8F36A9F1F0F4883551F172
:10441000F701868197812B960FB6F894DEBF0FBE09
:10442000CDBFDF91CF911F910F91FF90EF90DF9063
:10443000CF90BF90AF909F908F907F906F905F9044
:104440004F903F902F900895803749F0883701F7BB
:10445000D4FE02C06894D2F820E130E00DC0689428
:10446000D4F8F6CF34FE03C0822F8660D82E20E128
:1044700032E002C028E030E0F801D7FE0FC06081D2
:104480007181828193810C5F1F4FA5010E942E25AF
:10449000C82ECA183D2CE89437F852CF608171813C
:1044A00090E080E00E5F1F4FF0CF42FC02C083948B
:1044B00063CF8394839460CF842D867809F45CCF96
:1044C000F6CFB70180E290E00E94FE24839482142C
:1044D000C0F3512C5ECF522C5818821408F459CFD7
:1044E000F8CF842D867809F466CF8BE241FE80E216
:1044F00047FC8DE2B70190E05CCFB70180E390E02C
:104500000E94FE249A9457CF8FEF9FEF84CF8F9213
:104510009F92AF92BF92CF92DF92EF92FF920F9352
:104520001F93CF93DF9300D000D000D0CDB7DEB77C
:104530006A01F22EB02E102FFBE3AF2EA01608F466
:104540001BE31F5F012F27E0AE014F5F5F4F0E940B
:104550000024BC018981982F9970913009F44EC0D4
:104560009BE2E1FC04C09E2D9170E0FC49C05E2DF1
:104570005071E82FE87083FF55C084E0911101C0AD
:1045800083E0EF2DE81B8F1508F0E0E0D6018E2FB9
:1045900020E25523C9F1992329F0D6019C93C60145
:1045A00001966C0196012D5F3F4FE2FE33C08EE411
:1045B000D6018C9391E411969C93119712968C934B
:1045C000D9018E2F90E281112AC0E20FF32FF11D45
:1045D00010828EEF9FEF29960FB6F894DEBF0FBEC4
:1045E000CDBFDF91CF911F910F91FF90EF90DF90A2
:1045F000CF90BF90AF909F908F9008959DE2B7CFDE
:1046000090E2B5CF2D9381508111FCCFCE0ED11CFD
:10461000E0E0C1CF8EE6D6018C9391E6CCCF9D939E
:104620008150D1CF482F447082FF3DC084E091116A
:1046300001C083E08F1510F4EF2DE81BD6018E2FFB
:1046400020E2552309F1992329F0D6019C93C60154
:1046500001966C0196012D5F3F4FE2FE1BC089E47D
:10466000D6018C938EE411968C93119786E4129662
:104670008C93D9018E2F90E2882309F4A6CF9D93C5
:104680008150FACF2D9381508111FCCFCE0ED11CD9
:10469000E0E0D9CF89E6D6018C938EE611968C9313
:1046A000119786E6E4CF9B0177FF02C030E020E05F
:1046B000A1E0B0E0911102C0B0E0A0E0F9013196B4
:1046C000AE0FBF1F8B2C912CBB2009F461C054018D
:1046D000EFEFAE1ABE0AAA0DBB1DFA161B0619F0A3
:1046E00014F04F2D4A1B511188C0E3FC59C07601CC
:1046F000A42FB0E2A1114FC0C40ED11C992309F41C
:104700005BC040E0D6011196F60190836D01552300
:1047100009F448C0012F060F9A81582F507184FF69
:1047200003C0913309F4015010160CF047C0093052
:1047300008F008E0EEE2FE2E5B01A01AB108850148
:104740009194819491082F3F320729F4D601FC926D
:10475000F60131966F016217730794F10217130780
:104760007CF5DB01A21BB30BAA24A394B12CAC0EE5
:10477000BD1EAA0DBB1D11968C9121503109D60189
:10478000119628153905F4F0F60180836D01DBCF11
:10479000B12CA12CA0CFF701B1937F01A150AACFDA
:1047A0009111B0CFD601942F50E302C05D93915088
:1047B0009111FCCFC40ED11C40E0ACCF01E0BACFC8
:1047C00080E3DBCF6217730731F4963388F49533B7
:1047D00011F4552369F0F6018083FD01842F90E2E6
:1047E000811108C0A40FB11D1C9290E080E0F3CEAF
:1047F00081E3F1CF91938150F3CF911183CF8ACF91
:10480000283008F027E03327DA01990F311D87FDA2
:10481000916000966105710539F432602E5F3D9319
:1048200030E32A95E1F708959F3F30F08038710515
:10483000610509F03C5F3C5F3D93913008F0806872
:10484000911DDF93CF931F930F93FF92EF92192F38
:10485000987F9695E92F96959695E90FFF27E25058
:10486000FE4F99273327EE24FF24A701E701059087
:104870000894079428F4360FE71EF81E491F511DAF
:10488000660F771F881F991F0694A1F7059007945C
:1048900028F4E70EF81E491F561FC11D770F881F09
:1048A000991F661F0694A1F70590079428F4F80E47
:1048B000491F561FC71FD11D880F991F661F771FDD
:1048C0000694A1F70590079420F4490F561FC71FBF
:1048D000D81F990F661F771F881F0694A9F7849128
:1048E0001095177041F0D695C79557954795F79451
:1048F000E7941A95C1F7E4EAF1E0689415901591F0
:1049000035916591959105907FE27395E118F10AD3
:10491000430B560BC90BD009C0F7E10CF11E431F26
:10492000561FC91FD01D7EF4703311F48A95E6CF4F
:10493000E894015030F0080F0AF40027021708F439
:10494000202F2395022F7A3328F079E37D932A953F
:10495000E9F710C07D932A9589F606949795679597
:10496000379517951794E118F10A430B560BC90BAD
:10497000D00998F023957E9173957A3308F070E30F
:104980007C932013B8F77E9170617D9330F083950E
:1049900071E37D9370E32A95E1F71124EF90FF9086
:1049A0000F911F91CF91DF91992787FD90950895E1
:1049B000FC010590615070400110D8F780959095EA
:1049C0008E0F9F1F0895FC016150704001900110EF
:1049D000D8F7809590958E0F9F1F0895DC01FC01FC
:1049E000672F71917723E1F7329704C07C916D9323
:1049F00070836291AE17BF07C8F308950F931F939A
:104A0000CF93DF93182F092FEB018B8181FD09C014
:104A10001FEF0FEF812F902FDF91CF911F910F91FB
:104A2000089582FF14C02E813F818C819D812817BB
:104A300039073CF4E881F981CF0101969983888395
:104A400010838E819F8101969F838E83E3CFE885BB
:104A5000F985812F1995892BA1F3DACFFA01AA27BD
:104A6000283051F1203181F1E8946F936E7F6E5FB1
:104A70007F4F8F4F9F4FAF4FB1E03ED0B4E03CD05F
:104A8000670F781F891F9A1FA11D680F791F8A1F42
:104A9000911DA11D6A0F711D811D911DA11D20D0A9
:104AA00009F468943F912AE0269F11243019305D63
:104AB0003193DEF6CF010895462F4770405D419354
:104AC000B3E00FD0C9F7F6CF462F4F70405D4A33A1
:104AD00018F0495D31FD4052419302D0A9F7EACF69
:104AE000B4E0A6959795879577956795BA95C9F798
:104AF00000976105710508959B01AC010A2E06948B
:104B00005795479537952795BA95C9F7620F731F43
:104B1000841F951FA01D0895DC01CB01FC01F999AC
:104B2000FECF06C0F2BDE1BDF89A319600B40D92F9
:104B300041505040B8F70895F999FECF92BD81BD1C
:104B4000F89A992780B50895DC01A40FB51F41504C
:104B5000504048F0CB01840F951F2E910E94B5253F
:104B600041505040D0F70895262FF999FECF92BDBD
:104B700081BDF89A019700B4021639F01FBA20BD22
:104B80000FB6F894FA9AF99A0FBE0895052E97FB7E
:104B90001EF400940E94DD2557FD07D00E94F825E1
:104BA00007FC03D04EF40C94DD25509540953095CC
:104BB00021953F4F4F4F5F4F089590958095709589
:104BC00061957F4F8F4F9F4F08950E941A26A59F92
:104BD000900DB49F900DA49F800D911D11240895F8
:104BE000B7FF0C94E5250E94E525821B930B0895E1
:104BF000A1E21A2EAA1BBB1BFD010DC0AA1FBB1FE1
:104C0000EE1FFF1FA217B307E407F50720F0A21B52
:104C1000B30BE40BF50B661F771F881F991F1A94BF
:104C200069F760957095809590959B01AC01BD01E9
:104C3000CF010895A29FB001B39FC001A39F700D43
:104C4000811D1124911DB29F700D811D1124911D94
:104C5000089597FB072E16F4009407D077FD09D02E
:104C60000E94452607FC05D03EF4909581959F4F04
:104C70000895709561957F4F0895EE0FFF1F881F6F
:104C80008BBF0790F691E02D1994AA1BBB1B51E135
:104C900007C0AA1FBB1FA617B70710F0A61BB70BAC
:104CA000881F991F5A95A9F780959095BC01CD0151
:104CB0000895FB01DC0102C001900D92415050406B
:104CC000D8F70895FB01DC014150504048F00190B5
:104CD0000D920020C9F701C01D9241505040E0F7ED
:064CE0000895F894FFCFD7
:104CE600FFFFFF72164A16811757173B17E816BCC7
:104CF60016AA16DE17A3179118FD1797069706979B
:104D06000697069706970697069706010000000A7B
:104D1600001A00160018000C001E0020000E000DE0
:104D2600000B00090006000300000009001B001725
:104D36000019000B001F0021000F000C000A0008DC
:104D46000007000200010025002B00080044002D8A
:104D560000220023002E0031000700420024002F0D
:104D6600002900280027002A0043002C0026000DF9
:104D7600000C000B000A00080007000600050004EE
:104D86000003000200010000000F000E000D000CE1
:104D9600000B000A000800000000000805680495E2
:104DA600045A05C604A404B8040000000047081A03
:104DB60008B708F00713080008F1070D0A00496E46
:104DC600636F6D696E67206368616E676520666FE5
:104DD600722073656E736F723A002C204E657720D1
:104DE6007374617475733A20003C4E4F4E43453ED2
:104DF600004F4B004E41434B003F002100322E3303
:104E06002E3200537465726F776E696B20446F6C37
:084E16006E7900312E3000001E
:00000001FF
